{
  "contractName": "StakingSXCVault",
  "abi": [
    {
      "inputs": [],
      "stateMutability": "nonpayable",
      "type": "constructor"
    },
    {
      "anonymous": false,
      "inputs": [
        {
          "indexed": false,
          "internalType": "uint8",
          "name": "version",
          "type": "uint8"
        }
      ],
      "name": "Initialized",
      "type": "event"
    },
    {
      "anonymous": false,
      "inputs": [
        {
          "indexed": true,
          "internalType": "address",
          "name": "previousOwner",
          "type": "address"
        },
        {
          "indexed": true,
          "internalType": "address",
          "name": "newOwner",
          "type": "address"
        }
      ],
      "name": "OwnershipTransferred",
      "type": "event"
    },
    {
      "inputs": [],
      "name": "owner",
      "outputs": [
        {
          "internalType": "address",
          "name": "",
          "type": "address"
        }
      ],
      "stateMutability": "view",
      "type": "function",
      "constant": true
    },
    {
      "inputs": [],
      "name": "renounceOwnership",
      "outputs": [],
      "stateMutability": "nonpayable",
      "type": "function"
    },
    {
      "inputs": [
        {
          "internalType": "address",
          "name": "newOwner",
          "type": "address"
        }
      ],
      "name": "transferOwnership",
      "outputs": [],
      "stateMutability": "nonpayable",
      "type": "function"
    },
    {
      "inputs": [
        {
          "internalType": "address",
          "name": "owner",
          "type": "address"
        }
      ],
      "name": "initialize",
      "outputs": [],
      "stateMutability": "nonpayable",
      "type": "function"
    },
    {
      "inputs": [
        {
          "internalType": "address",
          "name": "tokenAddress",
          "type": "address"
        },
        {
          "internalType": "address",
          "name": "to",
          "type": "address"
        },
        {
          "internalType": "uint256",
          "name": "amount",
          "type": "uint256"
        }
      ],
      "name": "transfer",
      "outputs": [],
      "stateMutability": "nonpayable",
      "type": "function"
    }
  ],
  "bytecode": "0x60806040523480156200001157600080fd5b506000620000266001620000ae60201b60201c565b905080156200004b576001600060016101000a81548160ff0219169083151502179055505b8015620000a75760008060016101000a81548160ff0219169083151502179055507f7f26b83ff96e1f2b6a682f133852f6798a09c465da95921460cefb384740249860016040516200009e919062000231565b60405180910390a15b50620002f7565b60008060019054906101000a900460ff1615620001385760018260ff16148015620000ec5750620000ea30620001b460201b6200041f1760201c565b155b6200012e576040517f08c379a00000000000000000000000000000000000000000000000000000000081526004016200012590620002d5565b60405180910390fd5b60009050620001af565b8160ff1660008054906101000a900460ff1660ff161062000190576040517f08c379a00000000000000000000000000000000000000000000000000000000081526004016200018790620002d5565b60405180910390fd5b816000806101000a81548160ff021916908360ff160217905550600190505b919050565b6000808273ffffffffffffffffffffffffffffffffffffffff163b119050919050565b6000819050919050565b600060ff82169050919050565b6000819050919050565b600062000219620002136200020d84620001d7565b620001ee565b620001e1565b9050919050565b6200022b81620001f8565b82525050565b600060208201905062000248600083018462000220565b92915050565b600082825260208201905092915050565b7f496e697469616c697a61626c653a20636f6e747261637420697320616c72656160008201527f647920696e697469616c697a6564000000000000000000000000000000000000602082015250565b6000620002bd602e836200024e565b9150620002ca826200025f565b604082019050919050565b60006020820190508181036000830152620002f081620002ae565b9050919050565b610b7080620003076000396000f3fe608060405234801561001057600080fd5b50600436106100575760003560e01c8063715018a61461005c5780638da5cb5b14610066578063beabacc814610084578063c4d66de8146100a0578063f2fde38b146100bc575b600080fd5b6100646100d8565b005b61006e610160565b60405161007b91906106fb565b60405180910390f35b61009e6004803603810190610099919061077d565b61018a565b005b6100ba60048036038101906100b591906107d0565b61028a565b005b6100d660048036038101906100d191906107d0565b610328565b005b6100e0610442565b73ffffffffffffffffffffffffffffffffffffffff166100fe610160565b73ffffffffffffffffffffffffffffffffffffffff1614610154576040517f08c379a000000000000000000000000000000000000000000000000000000000815260040161014b9061085a565b60405180910390fd5b61015e600061044a565b565b6000603360009054906101000a900473ffffffffffffffffffffffffffffffffffffffff16905090565b610192610442565b73ffffffffffffffffffffffffffffffffffffffff166101b0610160565b73ffffffffffffffffffffffffffffffffffffffff1614610206576040517f08c379a00000000000000000000000000000000000000000000000000000000081526004016101fd9061085a565b60405180910390fd5b8273ffffffffffffffffffffffffffffffffffffffff1663a9059cbb83836040518363ffffffff1660e01b8152600401610241929190610889565b6020604051808303816000875af1158015610260573d6000803e3d6000fd5b505050506040513d601f19601f8201168201806040525081019061028491906108ea565b50505050565b60006102966001610510565b905080156102ba576001600060016101000a81548160ff0219169083151502179055505b6102c2610600565b6102cb82610328565b80156103245760008060016101000a81548160ff0219169083151502179055507f7f26b83ff96e1f2b6a682f133852f6798a09c465da95921460cefb3847402498600160405161031b9190610969565b60405180910390a15b5050565b610330610442565b73ffffffffffffffffffffffffffffffffffffffff1661034e610160565b73ffffffffffffffffffffffffffffffffffffffff16146103a4576040517f08c379a000000000000000000000000000000000000000000000000000000000815260040161039b9061085a565b60405180910390fd5b600073ffffffffffffffffffffffffffffffffffffffff168173ffffffffffffffffffffffffffffffffffffffff1603610413576040517f08c379a000000000000000000000000000000000000000000000000000000000815260040161040a906109f6565b60405180910390fd5b61041c8161044a565b50565b6000808273ffffffffffffffffffffffffffffffffffffffff163b119050919050565b600033905090565b6000603360009054906101000a900473ffffffffffffffffffffffffffffffffffffffff16905081603360006101000a81548173ffffffffffffffffffffffffffffffffffffffff021916908373ffffffffffffffffffffffffffffffffffffffff1602179055508173ffffffffffffffffffffffffffffffffffffffff168173ffffffffffffffffffffffffffffffffffffffff167f8be0079c531659141344cd1fd0a4f28419497f9722a3daafe3b4186f6b6457e060405160405180910390a35050565b60008060019054906101000a900460ff16156105875760018260ff1614801561053f575061053d3061041f565b155b61057e576040517f08c379a000000000000000000000000000000000000000000000000000000000815260040161057590610a88565b60405180910390fd5b600090506105fb565b8160ff1660008054906101000a900460ff1660ff16106105dc576040517f08c379a00000000000000000000000000000000000000000000000000000000081526004016105d390610a88565b60405180910390fd5b816000806101000a81548160ff021916908360ff160217905550600190505b919050565b600060019054906101000a900460ff1661064f576040517f08c379a000000000000000000000000000000000000000000000000000000000815260040161064690610b1a565b60405180910390fd5b610657610659565b565b600060019054906101000a900460ff166106a8576040517f08c379a000000000000000000000000000000000000000000000000000000000815260040161069f90610b1a565b60405180910390fd5b6106b86106b3610442565b61044a565b565b600073ffffffffffffffffffffffffffffffffffffffff82169050919050565b60006106e5826106ba565b9050919050565b6106f5816106da565b82525050565b600060208201905061071060008301846106ec565b92915050565b600080fd5b610724816106da565b811461072f57600080fd5b50565b6000813590506107418161071b565b92915050565b6000819050919050565b61075a81610747565b811461076557600080fd5b50565b60008135905061077781610751565b92915050565b60008060006060848603121561079657610795610716565b5b60006107a486828701610732565b93505060206107b586828701610732565b92505060406107c686828701610768565b9150509250925092565b6000602082840312156107e6576107e5610716565b5b60006107f484828501610732565b91505092915050565b600082825260208201905092915050565b7f4f776e61626c653a2063616c6c6572206973206e6f7420746865206f776e6572600082015250565b60006108446020836107fd565b915061084f8261080e565b602082019050919050565b6000602082019050818103600083015261087381610837565b9050919050565b61088381610747565b82525050565b600060408201905061089e60008301856106ec565b6108ab602083018461087a565b9392505050565b60008115159050919050565b6108c7816108b2565b81146108d257600080fd5b50565b6000815190506108e4816108be565b92915050565b600060208284031215610900576108ff610716565b5b600061090e848285016108d5565b91505092915050565b6000819050919050565b600060ff82169050919050565b6000819050919050565b600061095361094e61094984610917565b61092e565b610921565b9050919050565b61096381610938565b82525050565b600060208201905061097e600083018461095a565b92915050565b7f4f776e61626c653a206e6577206f776e657220697320746865207a65726f206160008201527f6464726573730000000000000000000000000000000000000000000000000000602082015250565b60006109e06026836107fd565b91506109eb82610984565b604082019050919050565b60006020820190508181036000830152610a0f816109d3565b9050919050565b7f496e697469616c697a61626c653a20636f6e747261637420697320616c72656160008201527f647920696e697469616c697a6564000000000000000000000000000000000000602082015250565b6000610a72602e836107fd565b9150610a7d82610a16565b604082019050919050565b60006020820190508181036000830152610aa181610a65565b9050919050565b7f496e697469616c697a61626c653a20636f6e7472616374206973206e6f74206960008201527f6e697469616c697a696e67000000000000000000000000000000000000000000602082015250565b6000610b04602b836107fd565b9150610b0f82610aa8565b604082019050919050565b60006020820190508181036000830152610b3381610af7565b905091905056fea264697066735822122058b855e1cf566cae5811d7a7f1818da995d70fa13be3fbded860a3be6af7a04864736f6c634300080f0033",
  "immutableReferences": {},
  "source": "// SPDX-License-Identifier: MIT\npragma solidity ^0.8.4;\n\nimport \"@openzeppelin/contracts-upgradeable/access/OwnableUpgradeable.sol\";\nimport \"@openzeppelin/contracts-upgradeable/proxy/utils/Initializable.sol\";\nimport \"@openzeppelin/contracts/token/ERC20/IERC20.sol\";\n\ncontract StakingSXCVault is Initializable, OwnableUpgradeable {\n    /// @custom:oz-upgrades-unsafe-allow constructor\n    constructor() initializer {}\n\n    function initialize(address owner) public initializer {\n        __Ownable_init();\n        transferOwnership(owner);\n    }\n\n    function transfer(\n        address tokenAddress,\n        address to,\n        uint256 amount\n    ) public onlyOwner {\n        IERC20(tokenAddress).transfer(to, amount);\n    }\n}\n",
  "sourcePath": "/Users/macos/Projects/nft_contract/contracts/StakingSXCVault.sol",
  "compiler": {
    "name": "solc",
    "version": "0.8.15+commit.e14f2714.Emscripten.clang"
  },
  "schemaVersion": "3.4.7",
  "updatedAt": "2022-07-02T07:11:27.810Z",
  "networkType": "ethereum",
  "devdoc": {
    "kind": "dev",
    "methods": {
      "constructor": {
        "custom:oz-upgrades-unsafe-allow": "constructor"
      },
      "owner()": {
        "details": "Returns the address of the current owner."
      },
      "renounceOwnership()": {
        "details": "Leaves the contract without owner. It will not be possible to call `onlyOwner` functions anymore. Can only be called by the current owner. NOTE: Renouncing ownership will leave the contract without an owner, thereby removing any functionality that is only available to the owner."
      },
      "transferOwnership(address)": {
        "details": "Transfers ownership of the contract to a new account (`newOwner`). Can only be called by the current owner."
      }
    },
    "version": 1
  },
  "userdoc": {
    "kind": "user",
    "methods": {},
    "version": 1
  }
}