{
  "contractName": "StakingSXC",
  "abi": [
    {
      "anonymous": false,
      "inputs": [
        {
          "indexed": false,
          "internalType": "uint8",
          "name": "version",
          "type": "uint8"
        }
      ],
      "name": "Initialized",
      "type": "event"
    },
    {
      "anonymous": false,
      "inputs": [
        {
          "indexed": true,
          "internalType": "bytes32",
          "name": "role",
          "type": "bytes32"
        },
        {
          "indexed": true,
          "internalType": "bytes32",
          "name": "previousAdminRole",
          "type": "bytes32"
        },
        {
          "indexed": true,
          "internalType": "bytes32",
          "name": "newAdminRole",
          "type": "bytes32"
        }
      ],
      "name": "RoleAdminChanged",
      "type": "event"
    },
    {
      "anonymous": false,
      "inputs": [
        {
          "indexed": true,
          "internalType": "bytes32",
          "name": "role",
          "type": "bytes32"
        },
        {
          "indexed": true,
          "internalType": "address",
          "name": "account",
          "type": "address"
        },
        {
          "indexed": true,
          "internalType": "address",
          "name": "sender",
          "type": "address"
        }
      ],
      "name": "RoleGranted",
      "type": "event"
    },
    {
      "anonymous": false,
      "inputs": [
        {
          "indexed": true,
          "internalType": "bytes32",
          "name": "role",
          "type": "bytes32"
        },
        {
          "indexed": true,
          "internalType": "address",
          "name": "account",
          "type": "address"
        },
        {
          "indexed": true,
          "internalType": "address",
          "name": "sender",
          "type": "address"
        }
      ],
      "name": "RoleRevoked",
      "type": "event"
    },
    {
      "anonymous": false,
      "inputs": [
        {
          "indexed": true,
          "internalType": "address",
          "name": "owner",
          "type": "address"
        },
        {
          "indexed": false,
          "internalType": "uint256",
          "name": "amount",
          "type": "uint256"
        }
      ],
      "name": "Stake",
      "type": "event"
    },
    {
      "anonymous": false,
      "inputs": [
        {
          "indexed": true,
          "internalType": "address",
          "name": "owner",
          "type": "address"
        },
        {
          "indexed": false,
          "internalType": "uint256",
          "name": "amount",
          "type": "uint256"
        }
      ],
      "name": "UnStake",
      "type": "event"
    },
    {
      "anonymous": false,
      "inputs": [
        {
          "indexed": true,
          "internalType": "address",
          "name": "withdrawer",
          "type": "address"
        },
        {
          "indexed": false,
          "internalType": "uint256",
          "name": "amount",
          "type": "uint256"
        }
      ],
      "name": "Withdraw",
      "type": "event"
    },
    {
      "inputs": [],
      "name": "DEFAULT_ADMIN_ROLE",
      "outputs": [
        {
          "internalType": "bytes32",
          "name": "",
          "type": "bytes32"
        }
      ],
      "stateMutability": "view",
      "type": "function",
      "constant": true
    },
    {
      "inputs": [
        {
          "internalType": "bytes32",
          "name": "role",
          "type": "bytes32"
        }
      ],
      "name": "getRoleAdmin",
      "outputs": [
        {
          "internalType": "bytes32",
          "name": "",
          "type": "bytes32"
        }
      ],
      "stateMutability": "view",
      "type": "function",
      "constant": true
    },
    {
      "inputs": [
        {
          "internalType": "bytes32",
          "name": "role",
          "type": "bytes32"
        },
        {
          "internalType": "address",
          "name": "account",
          "type": "address"
        }
      ],
      "name": "grantRole",
      "outputs": [],
      "stateMutability": "nonpayable",
      "type": "function"
    },
    {
      "inputs": [
        {
          "internalType": "bytes32",
          "name": "role",
          "type": "bytes32"
        },
        {
          "internalType": "address",
          "name": "account",
          "type": "address"
        }
      ],
      "name": "hasRole",
      "outputs": [
        {
          "internalType": "bool",
          "name": "",
          "type": "bool"
        }
      ],
      "stateMutability": "view",
      "type": "function",
      "constant": true
    },
    {
      "inputs": [
        {
          "internalType": "bytes32",
          "name": "role",
          "type": "bytes32"
        },
        {
          "internalType": "address",
          "name": "account",
          "type": "address"
        }
      ],
      "name": "renounceRole",
      "outputs": [],
      "stateMutability": "nonpayable",
      "type": "function"
    },
    {
      "inputs": [
        {
          "internalType": "bytes32",
          "name": "role",
          "type": "bytes32"
        },
        {
          "internalType": "address",
          "name": "account",
          "type": "address"
        }
      ],
      "name": "revokeRole",
      "outputs": [],
      "stateMutability": "nonpayable",
      "type": "function"
    },
    {
      "inputs": [],
      "name": "stakingToken",
      "outputs": [
        {
          "internalType": "contract IERC20",
          "name": "",
          "type": "address"
        }
      ],
      "stateMutability": "view",
      "type": "function",
      "constant": true
    },
    {
      "inputs": [
        {
          "internalType": "bytes4",
          "name": "interfaceId",
          "type": "bytes4"
        }
      ],
      "name": "supportsInterface",
      "outputs": [
        {
          "internalType": "bool",
          "name": "",
          "type": "bool"
        }
      ],
      "stateMutability": "view",
      "type": "function",
      "constant": true
    },
    {
      "inputs": [],
      "name": "sxcToken",
      "outputs": [
        {
          "internalType": "contract IERC20",
          "name": "",
          "type": "address"
        }
      ],
      "stateMutability": "view",
      "type": "function",
      "constant": true
    },
    {
      "inputs": [],
      "name": "vault",
      "outputs": [
        {
          "internalType": "contract StakingSXCVault",
          "name": "",
          "type": "address"
        }
      ],
      "stateMutability": "view",
      "type": "function",
      "constant": true
    },
    {
      "inputs": [
        {
          "internalType": "contract IERC20",
          "name": "stakingToken_",
          "type": "address"
        },
        {
          "internalType": "contract IERC20",
          "name": "sxcToken_",
          "type": "address"
        }
      ],
      "name": "initialize",
      "outputs": [],
      "stateMutability": "nonpayable",
      "type": "function"
    },
    {
      "inputs": [
        {
          "internalType": "uint256",
          "name": "amount_",
          "type": "uint256"
        }
      ],
      "name": "stake",
      "outputs": [],
      "stateMutability": "nonpayable",
      "type": "function"
    },
    {
      "inputs": [
        {
          "internalType": "uint256",
          "name": "amount_",
          "type": "uint256"
        }
      ],
      "name": "unStake",
      "outputs": [],
      "stateMutability": "nonpayable",
      "type": "function"
    },
    {
      "inputs": [],
      "name": "withdraw",
      "outputs": [],
      "stateMutability": "nonpayable",
      "type": "function"
    },
    {
      "inputs": [],
      "name": "updateDps",
      "outputs": [],
      "stateMutability": "nonpayable",
      "type": "function"
    },
    {
      "inputs": [
        {
          "internalType": "contract StakingSXCVault",
          "name": "_vault",
          "type": "address"
        }
      ],
      "name": "setVault",
      "outputs": [],
      "stateMutability": "nonpayable",
      "type": "function"
    },
    {
      "inputs": [
        {
          "internalType": "address",
          "name": "address_",
          "type": "address"
        }
      ],
      "name": "withdrawnOf",
      "outputs": [
        {
          "internalType": "uint256",
          "name": "",
          "type": "uint256"
        }
      ],
      "stateMutability": "view",
      "type": "function",
      "constant": true
    },
    {
      "inputs": [
        {
          "internalType": "address",
          "name": "address_",
          "type": "address"
        }
      ],
      "name": "creditOf",
      "outputs": [
        {
          "internalType": "uint256",
          "name": "",
          "type": "uint256"
        }
      ],
      "stateMutability": "view",
      "type": "function",
      "constant": true
    },
    {
      "inputs": [],
      "name": "stakedInfo",
      "outputs": [
        {
          "internalType": "uint256",
          "name": "",
          "type": "uint256"
        },
        {
          "internalType": "uint256",
          "name": "",
          "type": "uint256"
        },
        {
          "internalType": "uint256",
          "name": "",
          "type": "uint256"
        },
        {
          "internalType": "uint256",
          "name": "",
          "type": "uint256"
        }
      ],
      "stateMutability": "view",
      "type": "function",
      "constant": true
    },
    {
      "inputs": [
        {
          "internalType": "address",
          "name": "address_",
          "type": "address"
        }
      ],
      "name": "withdrawableOf",
      "outputs": [
        {
          "internalType": "uint256",
          "name": "",
          "type": "uint256"
        }
      ],
      "stateMutability": "view",
      "type": "function",
      "constant": true
    },
    {
      "inputs": [],
      "name": "totalDividend",
      "outputs": [
        {
          "internalType": "uint256",
          "name": "",
          "type": "uint256"
        }
      ],
      "stateMutability": "view",
      "type": "function",
      "constant": true
    }
  ],
  "bytecode": "0x608060405234801561001057600080fd5b506124ba806100206000396000f3fe608060405234801561001057600080fd5b50600436106101375760003560e01c806372f702f3116100b8578063c715a2b11161007c578063c715a2b114610326578063d547741f14610356578063ed3fa9ec14610372578063f21d24f614610393578063fa8c00d41461039d578063fbfa77cf146103cd57610137565b806372f702f31461026e578063758072501461028c57806391d14854146102bc578063a217fddf146102ec578063a694fc3a1461030a57610137565b8063485cc955116100ff578063485cc955146101de5780634b6acafb146101fa57806359586a5c146102185780635d3eea91146102365780636817031b1461025257610137565b806301ffc9a71461013c578063248a9ca31461016c5780632f2ff15d1461019c57806336568abe146101b85780633ccfd60b146101d4575b600080fd5b6101566004803603810190610151919061187f565b6103eb565b60405161016391906118c7565b60405180910390f35b61018660048036038101906101819190611918565b610465565b6040516101939190611954565b60405180910390f35b6101b660048036038101906101b191906119cd565b610485565b005b6101d260048036038101906101cd91906119cd565b6104a6565b005b6101dc610529565b005b6101f860048036038101906101f39190611a4b565b610534565b005b610202610659565b60405161020f9190611aa4565b60405180910390f35b610220610663565b60405161022d9190611b1e565b60405180910390f35b610250600480360381019061024b9190611b65565b610689565b005b61026c60048036038101906102679190611bd0565b610890565b005b6102766108e2565b6040516102839190611b1e565b60405180910390f35b6102a660048036038101906102a19190611bfd565b610908565b6040516102b39190611aa4565b60405180910390f35b6102d660048036038101906102d191906119cd565b610951565b6040516102e391906118c7565b60405180910390f35b6102f46109bc565b6040516103019190611954565b60405180910390f35b610324600480360381019061031f9190611b65565b6109c3565b005b610340600480360381019061033b9190611bfd565b610b5a565b60405161034d9190611aa4565b60405180910390f35b610370600480360381019061036b91906119cd565b610ba3565b005b61037a610bc4565b60405161038a9493929190611c2a565b60405180910390f35b61039b610c6a565b005b6103b760048036038101906103b29190611bfd565b610c74565b6040516103c49190611aa4565b60405180910390f35b6103d5610cda565b6040516103e29190611c90565b60405180910390f35b60007f7965db0b000000000000000000000000000000000000000000000000000000007bffffffffffffffffffffffffffffffffffffffffffffffffffffffff1916827bffffffffffffffffffffffffffffffffffffffffffffffffffffffff1916148061045e575061045d82610d00565b5b9050919050565b600060656000838152602001908152602001600020600101549050919050565b61048e82610465565b61049781610d6a565b6104a18383610d7e565b505050565b6104ae610e5f565b73ffffffffffffffffffffffffffffffffffffffff168173ffffffffffffffffffffffffffffffffffffffff161461051b576040517f08c379a000000000000000000000000000000000000000000000000000000000815260040161051290611d2e565b60405180910390fd5b6105258282610e67565b5050565b61053233610f49565b565b6000610540600161102b565b90508015610564576001600060016101000a81548160ff0219169083151502179055505b61056c61111b565b6105796000801b3361116c565b81609860006101000a81548173ffffffffffffffffffffffffffffffffffffffff021916908373ffffffffffffffffffffffffffffffffffffffff16021790555082609760006101000a81548173ffffffffffffffffffffffffffffffffffffffff021916908373ffffffffffffffffffffffffffffffffffffffff16021790555080156106545760008060016101000a81548160ff0219169083151502179055507f7f26b83ff96e1f2b6a682f133852f6798a09c465da95921460cefb3847402498600160405161064b9190611d96565b60405180910390a15b505050565b6000609e54905090565b609860009054906101000a900473ffffffffffffffffffffffffffffffffffffffff1681565b80609b60003373ffffffffffffffffffffffffffffffffffffffff1673ffffffffffffffffffffffffffffffffffffffff16815260200190815260200160002054101561070b576040517f08c379a000000000000000000000000000000000000000000000000000000000815260040161070290611dfd565b60405180910390fd5b609960009054906101000a900473ffffffffffffffffffffffffffffffffffffffff1673ffffffffffffffffffffffffffffffffffffffff1663beabacc8609760009054906101000a900473ffffffffffffffffffffffffffffffffffffffff1633846040518463ffffffff1660e01b815260040161078c93929190611e2c565b600060405180830381600087803b1580156107a657600080fd5b505af11580156107ba573d6000803e3d6000fd5b505050506107c733610f49565b80609b60003373ffffffffffffffffffffffffffffffffffffffff1673ffffffffffffffffffffffffffffffffffffffff16815260200190815260200160002060008282546108169190611e92565b9250508190555080609a600082825461082f9190611e92565b9250508190555061083f3361117a565b3373ffffffffffffffffffffffffffffffffffffffff167fb24546d975e2628748efc9aced80665e0fad66272033e5c0ea25fd3afac99795826040516108859190611aa4565b60405180910390a250565b6000801b61089d81610d6a565b81609960006101000a81548173ffffffffffffffffffffffffffffffffffffffff021916908373ffffffffffffffffffffffffffffffffffffffff1602179055505050565b609760009054906101000a900473ffffffffffffffffffffffffffffffffffffffff1681565b6000609d60008373ffffffffffffffffffffffffffffffffffffffff1673ffffffffffffffffffffffffffffffffffffffff168152602001908152602001600020549050919050565b60006065600084815260200190815260200160002060000160008373ffffffffffffffffffffffffffffffffffffffff1673ffffffffffffffffffffffffffffffffffffffff16815260200190815260200160002060009054906101000a900460ff16905092915050565b6000801b81565b609760009054906101000a900473ffffffffffffffffffffffffffffffffffffffff1673ffffffffffffffffffffffffffffffffffffffff166323b872dd33609960009054906101000a900473ffffffffffffffffffffffffffffffffffffffff16846040518463ffffffff1660e01b8152600401610a4493929190611e2c565b6020604051808303816000875af1158015610a63573d6000803e3d6000fd5b505050506040513d601f19601f82011682018060405250810190610a879190611ef2565b50610a9133610f49565b80609b60003373ffffffffffffffffffffffffffffffffffffffff1673ffffffffffffffffffffffffffffffffffffffff1681526020019081526020016000206000828254610ae09190611f1f565b9250508190555080609a6000828254610af99190611f1f565b92505081905550610b093361117a565b3373ffffffffffffffffffffffffffffffffffffffff167febedb8b3c678666e7f36970bc8f57abf6d8fa2e828c0da91ea5b75bf68ed101a82604051610b4f9190611aa4565b60405180910390a250565b6000609c60008373ffffffffffffffffffffffffffffffffffffffff1673ffffffffffffffffffffffffffffffffffffffff168152602001908152602001600020549050919050565b610bac82610465565b610bb581610d6a565b610bbf8383610e67565b505050565b6000806000806000610bd533610c74565b9050609b60003373ffffffffffffffffffffffffffffffffffffffff1673ffffffffffffffffffffffffffffffffffffffff16815260200190815260200160002054609a5482609c60003373ffffffffffffffffffffffffffffffffffffffff1673ffffffffffffffffffffffffffffffffffffffff1681526020019081526020016000205494509450945094505090919293565b610c7261120d565b565b600080609a5403610c885760009050610cd5565b6000610c92611284565b90506000609a54670de0b6b3a764000083610cad9190611f75565b610cb79190611ffe565b609f54610cc49190611f1f565b9050610cd084826112d0565b925050505b919050565b609960009054906101000a900473ffffffffffffffffffffffffffffffffffffffff1681565b60007f01ffc9a7000000000000000000000000000000000000000000000000000000007bffffffffffffffffffffffffffffffffffffffffffffffffffffffff1916827bffffffffffffffffffffffffffffffffffffffffffffffffffffffff1916149050919050565b610d7b81610d76610e5f565b611382565b50565b610d888282610951565b610e5b5760016065600084815260200190815260200160002060000160008373ffffffffffffffffffffffffffffffffffffffff1673ffffffffffffffffffffffffffffffffffffffff16815260200190815260200160002060006101000a81548160ff021916908315150217905550610e00610e5f565b73ffffffffffffffffffffffffffffffffffffffff168173ffffffffffffffffffffffffffffffffffffffff16837f2f8788117e7eff1d82e926ec794901d17c78024a50270940304540a733656f0d60405160405180910390a45b5050565b600033905090565b610e718282610951565b15610f455760006065600084815260200190815260200160002060000160008373ffffffffffffffffffffffffffffffffffffffff1673ffffffffffffffffffffffffffffffffffffffff16815260200190815260200160002060006101000a81548160ff021916908315150217905550610eea610e5f565b73ffffffffffffffffffffffffffffffffffffffff168173ffffffffffffffffffffffffffffffffffffffff16837ff6391f5c32d9c69d2a47ea670b442974b53935d1edc7fd64eb21e047a839171b60405160405180910390a45b5050565b610f5161120d565b6000610f5f82609f546112d0565b905060008103610f6f5750611028565b80609c60008473ffffffffffffffffffffffffffffffffffffffff1673ffffffffffffffffffffffffffffffffffffffff1681526020019081526020016000206000828254610fbe9190611f1f565b92505081905550610fce8261117a565b610fd8828261141f565b8173ffffffffffffffffffffffffffffffffffffffff167f884edad9ce6fa2440d8a54cc123490eb96d2768479d49ff9c7366125a94243648260405161101e9190611aa4565b60405180910390a2505b50565b60008060019054906101000a900460ff16156110a25760018260ff1614801561105a5750611058306114cd565b155b611099576040517f08c379a0000000000000000000000000000000000000000000000000000000008152600401611090906120a1565b60405180910390fd5b60009050611116565b8160ff1660008054906101000a900460ff1660ff16106110f7576040517f08c379a00000000000000000000000000000000000000000000000000000000081526004016110ee906120a1565b60405180910390fd5b816000806101000a81548160ff021916908360ff160217905550600190505b919050565b600060019054906101000a900460ff1661116a576040517f08c379a000000000000000000000000000000000000000000000000000000000815260040161116190612133565b60405180910390fd5b565b6111768282610d7e565b5050565b609f54609b60008373ffffffffffffffffffffffffffffffffffffffff1673ffffffffffffffffffffffffffffffffffffffff168152602001908152602001600020546111c79190611f75565b609d60008373ffffffffffffffffffffffffffffffffffffffff1673ffffffffffffffffffffffffffffffffffffffff1681526020019081526020016000208190555050565b6000609a5403156112825760006112226114f0565b905060008111156112805780609e600082825461123f9190611f1f565b92505081905550609a54670de0b6b3a76400008261125d9190611f75565b6112679190611ffe565b609f60008282546112789190611f1f565b925050819055505b505b565b60008061128f611543565b905060a05481036112a45760009150506112cd565b600060a05482116112b65760006112c5565b60a054826112c49190611e92565b5b905080925050505b90565b6000670de0b6b3a7640000609d60008573ffffffffffffffffffffffffffffffffffffffff1673ffffffffffffffffffffffffffffffffffffffff1681526020019081526020016000205483609b60008773ffffffffffffffffffffffffffffffffffffffff1673ffffffffffffffffffffffffffffffffffffffff168152602001908152602001600020546113669190611f75565b6113709190611e92565b61137a9190611ffe565b905092915050565b61138c8282610951565b61141b576113b18173ffffffffffffffffffffffffffffffffffffffff1660146115e6565b6113bf8360001c60206115e6565b6040516020016113d0929190612265565b6040516020818303038152906040526040517f08c379a000000000000000000000000000000000000000000000000000000000815260040161141291906122e9565b60405180910390fd5b5050565b609860009054906101000a900473ffffffffffffffffffffffffffffffffffffffff1673ffffffffffffffffffffffffffffffffffffffff1663a9059cbb83836040518363ffffffff1660e01b815260040161147c92919061230b565b6020604051808303816000875af115801561149b573d6000803e3d6000fd5b505050506040513d601f19601f820116820180604052508101906114bf9190611ef2565b506114c86114f0565b505050565b6000808273ffffffffffffffffffffffffffffffffffffffff163b119050919050565b6000806114fb611543565b905060a0548103611510576000915050611540565b600060a0548211611522576000611531565b60a054826115309190611e92565b5b90508160a08190555080925050505b90565b6000609860009054906101000a900473ffffffffffffffffffffffffffffffffffffffff1673ffffffffffffffffffffffffffffffffffffffff166370a08231306040518263ffffffff1660e01b81526004016115a09190612334565b602060405180830381865afa1580156115bd573d6000803e3d6000fd5b505050506040513d601f19601f820116820180604052508101906115e19190612364565b905090565b6060600060028360026115f99190611f75565b6116039190611f1f565b67ffffffffffffffff81111561161c5761161b612391565b5b6040519080825280601f01601f19166020018201604052801561164e5781602001600182028036833780820191505090505b5090507f300000000000000000000000000000000000000000000000000000000000000081600081518110611686576116856123c0565b5b60200101907effffffffffffffffffffffffffffffffffffffffffffffffffffffffffffff1916908160001a9053507f7800000000000000000000000000000000000000000000000000000000000000816001815181106116ea576116e96123c0565b5b60200101907effffffffffffffffffffffffffffffffffffffffffffffffffffffffffffff1916908160001a9053506000600184600261172a9190611f75565b6117349190611f1f565b90505b60018111156117d4577f3031323334353637383961626364656600000000000000000000000000000000600f861660108110611776576117756123c0565b5b1a60f81b82828151811061178d5761178c6123c0565b5b60200101907effffffffffffffffffffffffffffffffffffffffffffffffffffffffffffff1916908160001a905350600485901c9450806117cd906123ef565b9050611737565b5060008414611818576040517f08c379a000000000000000000000000000000000000000000000000000000000815260040161180f90612464565b60405180910390fd5b8091505092915050565b600080fd5b60007fffffffff0000000000000000000000000000000000000000000000000000000082169050919050565b61185c81611827565b811461186757600080fd5b50565b60008135905061187981611853565b92915050565b60006020828403121561189557611894611822565b5b60006118a38482850161186a565b91505092915050565b60008115159050919050565b6118c1816118ac565b82525050565b60006020820190506118dc60008301846118b8565b92915050565b6000819050919050565b6118f5816118e2565b811461190057600080fd5b50565b600081359050611912816118ec565b92915050565b60006020828403121561192e5761192d611822565b5b600061193c84828501611903565b91505092915050565b61194e816118e2565b82525050565b60006020820190506119696000830184611945565b92915050565b600073ffffffffffffffffffffffffffffffffffffffff82169050919050565b600061199a8261196f565b9050919050565b6119aa8161198f565b81146119b557600080fd5b50565b6000813590506119c7816119a1565b92915050565b600080604083850312156119e4576119e3611822565b5b60006119f285828601611903565b9250506020611a03858286016119b8565b9150509250929050565b6000611a188261198f565b9050919050565b611a2881611a0d565b8114611a3357600080fd5b50565b600081359050611a4581611a1f565b92915050565b60008060408385031215611a6257611a61611822565b5b6000611a7085828601611a36565b9250506020611a8185828601611a36565b9150509250929050565b6000819050919050565b611a9e81611a8b565b82525050565b6000602082019050611ab96000830184611a95565b92915050565b6000819050919050565b6000611ae4611adf611ada8461196f565b611abf565b61196f565b9050919050565b6000611af682611ac9565b9050919050565b6000611b0882611aeb565b9050919050565b611b1881611afd565b82525050565b6000602082019050611b336000830184611b0f565b92915050565b611b4281611a8b565b8114611b4d57600080fd5b50565b600081359050611b5f81611b39565b92915050565b600060208284031215611b7b57611b7a611822565b5b6000611b8984828501611b50565b91505092915050565b6000611b9d8261198f565b9050919050565b611bad81611b92565b8114611bb857600080fd5b50565b600081359050611bca81611ba4565b92915050565b600060208284031215611be657611be5611822565b5b6000611bf484828501611bbb565b91505092915050565b600060208284031215611c1357611c12611822565b5b6000611c21848285016119b8565b91505092915050565b6000608082019050611c3f6000830187611a95565b611c4c6020830186611a95565b611c596040830185611a95565b611c666060830184611a95565b95945050505050565b6000611c7a82611aeb565b9050919050565b611c8a81611c6f565b82525050565b6000602082019050611ca56000830184611c81565b92915050565b600082825260208201905092915050565b7f416363657373436f6e74726f6c3a2063616e206f6e6c792072656e6f756e636560008201527f20726f6c657320666f722073656c660000000000000000000000000000000000602082015250565b6000611d18602f83611cab565b9150611d2382611cbc565b604082019050919050565b60006020820190508181036000830152611d4781611d0b565b9050919050565b6000819050919050565b600060ff82169050919050565b6000611d80611d7b611d7684611d4e565b611abf565b611d58565b9050919050565b611d9081611d65565b82525050565b6000602082019050611dab6000830184611d87565b92915050565b7f696e73756666696369656e742066756e64730000000000000000000000000000600082015250565b6000611de7601283611cab565b9150611df282611db1565b602082019050919050565b60006020820190508181036000830152611e1681611dda565b9050919050565b611e268161198f565b82525050565b6000606082019050611e416000830186611e1d565b611e4e6020830185611e1d565b611e5b6040830184611a95565b949350505050565b7f4e487b7100000000000000000000000000000000000000000000000000000000600052601160045260246000fd5b6000611e9d82611a8b565b9150611ea883611a8b565b925082821015611ebb57611eba611e63565b5b828203905092915050565b611ecf816118ac565b8114611eda57600080fd5b50565b600081519050611eec81611ec6565b92915050565b600060208284031215611f0857611f07611822565b5b6000611f1684828501611edd565b91505092915050565b6000611f2a82611a8b565b9150611f3583611a8b565b9250827fffffffffffffffffffffffffffffffffffffffffffffffffffffffffffffffff03821115611f6a57611f69611e63565b5b828201905092915050565b6000611f8082611a8b565b9150611f8b83611a8b565b9250817fffffffffffffffffffffffffffffffffffffffffffffffffffffffffffffffff0483118215151615611fc457611fc3611e63565b5b828202905092915050565b7f4e487b7100000000000000000000000000000000000000000000000000000000600052601260045260246000fd5b600061200982611a8b565b915061201483611a8b565b92508261202457612023611fcf565b5b828204905092915050565b7f496e697469616c697a61626c653a20636f6e747261637420697320616c72656160008201527f647920696e697469616c697a6564000000000000000000000000000000000000602082015250565b600061208b602e83611cab565b91506120968261202f565b604082019050919050565b600060208201905081810360008301526120ba8161207e565b9050919050565b7f496e697469616c697a61626c653a20636f6e7472616374206973206e6f74206960008201527f6e697469616c697a696e67000000000000000000000000000000000000000000602082015250565b600061211d602b83611cab565b9150612128826120c1565b604082019050919050565b6000602082019050818103600083015261214c81612110565b9050919050565b600081905092915050565b7f416363657373436f6e74726f6c3a206163636f756e7420000000000000000000600082015250565b6000612194601783612153565b915061219f8261215e565b601782019050919050565b600081519050919050565b60005b838110156121d35780820151818401526020810190506121b8565b838111156121e2576000848401525b50505050565b60006121f3826121aa565b6121fd8185612153565b935061220d8185602086016121b5565b80840191505092915050565b7f206973206d697373696e6720726f6c6520000000000000000000000000000000600082015250565b600061224f601183612153565b915061225a82612219565b601182019050919050565b600061227082612187565b915061227c82856121e8565b915061228782612242565b915061229382846121e8565b91508190509392505050565b6000601f19601f8301169050919050565b60006122bb826121aa565b6122c58185611cab565b93506122d58185602086016121b5565b6122de8161229f565b840191505092915050565b6000602082019050818103600083015261230381846122b0565b905092915050565b60006040820190506123206000830185611e1d565b61232d6020830184611a95565b9392505050565b60006020820190506123496000830184611e1d565b92915050565b60008151905061235e81611b39565b92915050565b60006020828403121561237a57612379611822565b5b60006123888482850161234f565b91505092915050565b7f4e487b7100000000000000000000000000000000000000000000000000000000600052604160045260246000fd5b7f4e487b7100000000000000000000000000000000000000000000000000000000600052603260045260246000fd5b60006123fa82611a8b565b91506000820361240d5761240c611e63565b5b600182039050919050565b7f537472696e67733a20686578206c656e67746820696e73756666696369656e74600082015250565b600061244e602083611cab565b915061245982612418565b602082019050919050565b6000602082019050818103600083015261247d81612441565b905091905056fea2646970667358221220b37d98ae00aa07e311f049aca3f168e1f526fce32ad023e47ea1c1827fe690e564736f6c634300080f0033",
  "immutableReferences": {},
  "source": "// SPDX-License-Identifier: MIT\npragma solidity ^0.8.2;\n\nimport \"@openzeppelin/contracts-upgradeable/access/AccessControlUpgradeable.sol\";\nimport \"@openzeppelin/contracts-upgradeable/proxy/utils/Initializable.sol\";\nimport \"@openzeppelin/contracts-upgradeable/utils/CountersUpgradeable.sol\";\nimport \"@openzeppelin/contracts/token/ERC20/IERC20.sol\";\nimport \"./StakingSXCVault.sol\";\n\ncontract StakingSXC is Initializable, AccessControlUpgradeable {\n    using CountersUpgradeable for CountersUpgradeable.Counter;\n\n    IERC20 public stakingToken;\n    IERC20 public sxcToken;\n    StakingSXCVault public vault;\n\n    uint256 private _totalStaked;\n\n    mapping(address => uint256) private _stakeOf;\n    mapping(address => uint256) private _withdrawnOf;\n    mapping(address => uint256) private _creditOf;\n\n    uint256 internal _totalDividend;\n\n    uint256 private _dps;\n\n    uint256 internal constant DPS_ZOOM = 1e18;\n    uint256 private _lastSXCBalance;\n\n    event Withdraw(address indexed withdrawer, uint256 amount);\n    event Stake(address indexed owner, uint256 amount);\n    event UnStake(address indexed owner, uint256 amount);\n\n    function initialize(IERC20 stakingToken_, IERC20 sxcToken_)\n        public\n        initializer\n    {\n        __AccessControl_init();\n\n        _setupRole(DEFAULT_ADMIN_ROLE, msg.sender);\n\n        sxcToken = sxcToken_;\n        stakingToken = stakingToken_;\n    }\n\n    // ============ PUBLIC ============\n    function stake(uint256 amount_) public {\n        stakingToken.transferFrom(msg.sender, address(vault), amount_);\n\n        _withdraw(msg.sender);\n\n        _stakeOf[msg.sender] += amount_;\n        _totalStaked += amount_;\n\n        _resetCredit(msg.sender);\n\n        emit Stake(msg.sender, amount_);\n    }\n\n    function unStake(uint256 amount_) public {\n        require(_stakeOf[msg.sender] >= amount_, \"insufficient funds\");\n\n        vault.transfer(address(stakingToken), msg.sender, amount_);\n\n        _withdraw(msg.sender);\n\n        _stakeOf[msg.sender] -= amount_;\n        _totalStaked -= amount_;\n\n        _resetCredit(msg.sender);\n\n        emit UnStake(msg.sender, amount_);\n    }\n\n    function withdraw() public {\n        _withdraw(msg.sender);\n    }\n\n    function updateDps() public {\n        _updateDps();\n    }\n\n    function setVault(StakingSXCVault _vault)\n        public\n        onlyRole(DEFAULT_ADMIN_ROLE)\n    {\n        vault = _vault;\n    }\n\n    // ============ INTERNALS ============\n\n    function _withdrawableOf(address address_, uint256 dps_)\n        internal\n        view\n        returns (uint256)\n    {\n        return (_stakeOf[address_] * dps_ - _creditOf[address_]) / DPS_ZOOM;\n    }\n\n    function _withdraw(address address_) internal {\n        _updateDps();\n        uint256 amount = _withdrawableOf(address_, _dps);\n        if (amount == 0) {\n            return;\n        }\n        _withdrawnOf[address_] += amount;\n        _resetCredit(address_);\n\n        _sxcTransfer(address_, amount);\n\n        emit Withdraw(address_, amount);\n    }\n\n    function _updateDps() internal {\n        if (_totalStaked == 0) {\n            return;\n        }\n        uint256 added = _updateLastBalance();\n        if (added > 0) {\n            _totalDividend += added;\n            _dps += (added * DPS_ZOOM) / _totalStaked;\n        }\n    }\n\n    function _resetCredit(address address_) internal {\n        _creditOf[address_] = _stakeOf[address_] * _dps;\n    }\n\n    function _sxcTransfer(address to_, uint256 amount_) internal {\n        sxcToken.transfer(to_, amount_);\n        _updateLastBalance();\n    }\n\n    function _updateLastBalance() internal returns (uint256) {\n        uint256 newBalance = _thisSXCBalance();\n        if (newBalance == _lastSXCBalance) {\n            return 0;\n        }\n        uint256 added = newBalance > _lastSXCBalance\n            ? newBalance - _lastSXCBalance\n            : 0;\n        _lastSXCBalance = newBalance;\n        return added;\n    }\n\n    function _getAddedBalance() internal view returns (uint256) {\n        uint256 newBalance = _thisSXCBalance();\n        if (newBalance == _lastSXCBalance) {\n            return 0;\n        }\n        uint256 added = newBalance > _lastSXCBalance\n            ? newBalance - _lastSXCBalance\n            : 0;\n\n        return added;\n    }\n\n    function _thisSXCBalance() internal view returns (uint256) {\n        return sxcToken.balanceOf(address(this));\n    }\n\n    // ============ VIEWS ============\n    function withdrawnOf(address address_) public view returns (uint256) {\n        return _withdrawnOf[address_];\n    }\n\n    function creditOf(address address_) public view returns (uint256) {\n        return _creditOf[address_];\n    }\n\n    function stakedInfo()\n        public\n        view\n        returns (\n            uint256,\n            uint256,\n            uint256,\n            uint256\n        )\n    {\n        uint256 myWithdrawable = withdrawableOf(msg.sender);\n        return (\n            _stakeOf[msg.sender],\n            _totalStaked,\n            myWithdrawable,\n            _withdrawnOf[msg.sender]\n        );\n    }\n\n    function withdrawableOf(address address_) public view returns (uint256) {\n        if (_totalStaked == 0) {\n            return 0;\n        }\n        uint256 added = _getAddedBalance();\n        uint256 newDps = _dps + (added * DPS_ZOOM) / _totalStaked;\n\n        return _withdrawableOf(address_, newDps);\n    }\n\n    function totalDividend() public view returns (uint256) {\n        return _totalDividend;\n    }\n\n    // ============ UTILS ============\n    modifier onlyNonContract() {\n        _onlyNonContract();\n        _;\n    }\n\n    function _onlyNonContract() internal view {\n        require(tx.origin == msg.sender, \"Only EOA allowed (temporary)\");\n    }\n}\n",
  "sourcePath": "/Users/macos/Projects/nft_contract/contracts/StakingSXC.sol",
  "compiler": {
    "name": "solc",
    "version": "0.8.15+commit.e14f2714.Emscripten.clang"
  },
  "schemaVersion": "3.4.7",
  "updatedAt": "2022-07-02T07:11:27.798Z",
  "networkType": "ethereum",
  "devdoc": {
    "kind": "dev",
    "methods": {
      "getRoleAdmin(bytes32)": {
        "details": "Returns the admin role that controls `role`. See {grantRole} and {revokeRole}. To change a role's admin, use {_setRoleAdmin}."
      },
      "grantRole(bytes32,address)": {
        "details": "Grants `role` to `account`. If `account` had not been already granted `role`, emits a {RoleGranted} event. Requirements: - the caller must have ``role``'s admin role."
      },
      "hasRole(bytes32,address)": {
        "details": "Returns `true` if `account` has been granted `role`."
      },
      "renounceRole(bytes32,address)": {
        "details": "Revokes `role` from the calling account. Roles are often managed via {grantRole} and {revokeRole}: this function's purpose is to provide a mechanism for accounts to lose their privileges if they are compromised (such as when a trusted device is misplaced). If the calling account had been revoked `role`, emits a {RoleRevoked} event. Requirements: - the caller must be `account`."
      },
      "revokeRole(bytes32,address)": {
        "details": "Revokes `role` from `account`. If `account` had been granted `role`, emits a {RoleRevoked} event. Requirements: - the caller must have ``role``'s admin role."
      },
      "supportsInterface(bytes4)": {
        "details": "See {IERC165-supportsInterface}."
      }
    },
    "version": 1
  },
  "userdoc": {
    "kind": "user",
    "methods": {},
    "version": 1
  }
}